:100000000C9463000C94E6070C9413080C948B007A
:100010000C948B000C948B000C948B000C945A075E
:100020000C948B000C948B000C948B000C94721627
:100030000C948B000C948B000C948B000C948B0014
:100040000C9440080C948B000C9447010C948B008A
:100050000C948B000C948B000C948B000C948B00F4
:100060000C948B000C948B00000000070002010030
:100070000003040600000000000000000102040864
:100080001020408001020408102001020408102002
:10009000040404040404040402020202020203032E
:1000A00003030303000000002300260029000000D2
:1000B0000000250028002B0000000000240027007D
:1000C0002A000200390211241FBECFEFD8E0DEBFA4
:1000D000CDBF11E0A0E0B1E0ECE5F5E402C0059091
:1000E0000D92A035B107D9F714E0A0E5B1E001C049
:1000F0001D92AB36B107E1F710E0C6ECD0E004C0CA
:100100002297FE010E94B31EC43CD107C9F70E948A
:10011000AC120C94AC220C949B162F923F924F92EF
:100120005F926F927F928F929F92AF92BF92CF9287
:10013000DF92EF92FF920F931F93CF93DF930DB750
:100140001EB7C82FD92F08831983C62FD72F088130
:1001500019810DBF1EBFDF91CF911F910F91FF90AD
:10016000EF90DF90CF90BF90AF909F908F907F9057
:100170006F905F904F903F902F900895C82FD92F88
:10018000088119810DBF1EBFDF91CF911F910F9183
:10019000FF90EF90DF90CF90BF90AF909F908F90A7
:1001A0007F906F905F904F903F902F901895FC013B
:1001B00022813381F901E058FF4F808191812E57D0
:1001C0003F4FF90120813181821B930B8F77907013
:1001D0000895FC0182819381FC01EE57FF4F20813D
:1001E0003181FC01E058FF4F408151814217530794
:1001F00031F0820F931FFC01808190E008958FEF12
:100200009FEF0895FC0182819381DC01AE57BF4FBF
:100210004D915C911197FC01E058FF4F2081318195
:100220002417350769F0840F951FFC0180814F5F0B
:100230005F4F4F77507011965C934E9390E0089506
:100240008FEF9FEF0895DC0112968D919C9113978B
:10025000FC01E058FF4F8E579F4FDC018D919C9120
:100260001197918380830895FC01A085B185218930
:100270008C9190E0022E02C0959587950A94E2F742
:1002800080FFF6CF0484F585E02D608308951F92EA
:100290000F920FB60F9211242F933F934F935F93BA
:1002A0006F938F939F93EF93FF936091C60020917C
:1002B000E3013091E401C90101968F77907040917C
:1002C000E5015091E6018417950741F02D593E4F05
:1002D000F90160839093E4018093E301FF91EF9132
:1002E0009F918F916F915F914F913F912F910F90BF
:1002F0000FBE0F901F9018958F92AF92CF92DF9202
:10030000EF92FF920F931F93CF93DF93CDB7DEB79A
:10031000FC0184E091E09183808373836283558341
:1003200044833783268311870087F386E286D58648
:10033000C486A68687868D85808B8E85818B8F85EA
:10034000828BDF91CF911F910F91FF90EF90DF9003
:10035000CF90AF908F9008950F931F93CF93DF931B
:10036000EC019A01AB01E885F985203081EE380770
:1003700080E0480780E0580709F44DC081E090E034
:100380000A8802C0880F991F0A94E2F7808360E010
:1003900079E08DE390E00E94961E89019A01015058
:1003A000104020403040C901B80122E030E040E078
:1003B00050E00E94961EEC81FD813083EE81FF812A
:1003C0002083EA85FB85408121E030E0C9010E846D
:1003D00002C0880F991F0A94E2F7482B4083EA85F0
:1003E000FB854081C9010F8402C0880F991F0A94C0
:1003F000E2F7482B4083EA85FB858081088802C0AC
:10040000220F331F0A94E2F7822B8083DF91CF9172
:100410001F910F910895108220E130E0CCCFFC01B4
:10042000A285B3854C9121E030E0C901068402C069
:10043000880F991F0A94E2F7809584238C93A285F4
:10044000B3854C91C901078402C0880F991F0A9493
:10045000E2F7809584238C93A285B3858C910088E4
:1004600002C0220F331F0A94E2F7209528232C9311
:10047000089584E091E0909351018093500183E6C8
:1004800091E0909353018093520185EC90E090931A
:1004900055018093540184EC90E090935701809330
:1004A000560180EC90E0909359018093580181ECC3
:1004B00090E090935B0180935A0186EC90E09093DA
:1004C0005D0180935C0184E080935E0183E0809312
:1004D0005F0187E08093600185E08093610181E0A6
:1004E0008093620108950F931F93CF93DF938C0144
:1004F000EB0108C0D801ED91FC910190F081E02D55
:10050000C801099569916623A9F7DF91CF911F91E1
:100510000F910895EF92FF920F931F93CF93DF9364
:100520007C018B01EA010CC0D8016D918D01D701CE
:10053000ED91FC910190F081E02DC7010995219783
:10054000209791F7DF91CF911F910F91FF90EF903E
:100550000895CF92DF92EF92FF920F931F93CF9364
:10056000DF937C016B0100E010E00FC0D701ED913B
:10057000FC91C081D181C601B8010E94C50E682FCF
:10058000C701FE0109950F5F1F4FF6018481958118
:100590000817190758F3DF91CF911F910F91FF9022
:1005A000EF90DF90CF900895DC01ED91FC910280F7
:1005B000F381E02D099508956F927F928F929F921B
:1005C000AF92BF92CF92DF92EF92FF920F931F9361
:1005D000CF93DF93CDB7DEB7A0970FB6F894DEBF09
:1005E0000FBECDBF3C01DB01CA01411551056105BC
:1005F000710551F4C30140E350E060E070E020E099
:1006000030E00E94780341C08E010F5F1F4FCC2461
:10061000DD247601822E9924AA24BB24BC01CD01BD
:10062000A50194010E94741EF80161938F01089442
:10063000C11CD11CE11CF11CC901DA010097A10504
:10064000B10561F714C0E1E0F0E0EC0FFD1FEC0D27
:10065000FD1D40814A3010F4405D01C0495C50E00E
:1006600060E070E0C30120E030E00E94780308946D
:10067000C108D108E108F108FFEFCF16FFEFDF0650
:10068000FFEFEF06FFEFFF06F1F6A0960FB6F89426
:10069000DEBF0FBECDBFDF91CF911F910F91FF90B5
:1006A000EF90DF90CF90BF90AF909F908F907F9012
:1006B0006F9008952115310549F4DC01ED91FC910D
:1006C0000190F081E02D642F099508950E94DC02CD
:1006D00008959A01AB0160E070E00E945A0308950A
:1006E0009A01462F50E060E070E00E945A0308959E
:1006F000CF92DF92EF92FF92CF93DF93EC016A01EA
:100700007B012115310541F4E881F9810190F081E7
:10071000E02D642F09951BC02A303105B1F477FF15
:1007200010C04DE250E060E070E020E030E00E9458
:100730007803F094E094D094C094C11CD11CE11CC7
:10074000F11CCE01B701A6012AE00E94DC02DF9174
:10075000CF91FF90EF90DF90CF9008959A01FB0129
:10076000AF01662757FD6095762F0E9478030895A4
:100770009A01462F50E060E070E00E9478030895EF
:10078000CF93DF93EC014DE050E060E070E020E0BB
:1007900030E00E947803CE014AE050E060E070E073
:1007A00020E030E00E947803DF91CF910895CF934D
:1007B000DF93EC010E945A03CE010E94C003DF9137
:1007C000CF910895CF93DF93EC019A01AB0160E0E4
:1007D00070E00E945A03CE010E94C003DF91CF91C6
:1007E0000895CF93DF93EC019A01462F50E060E02B
:1007F00070E00E945A03CE010E94C003DF91CF91A6
:100800000895CF93DF93EC010E94D402CE010E94A1
:10081000C003DF91CF910895CF93DF93EC010E9445
:10082000A902CE010E94C003DF91CF910895CF931A
:10083000DF93EC010E947803CE010E94C003DF9198
:10084000CF910895CF93DF93EC019A01CB01AC01D6
:10085000662757FD6095762FCE010E947803CE0162
:100860000E94C003DF91CF910895CF93DF93EC01F5
:100870009A01462F50E060E070E00E947803CE01BC
:100880000E94C003DF91CF9108958F929F92BF92F3
:10089000CF92DF92EF92FF920F931F93CF93DF934C
:1008A0004C016A017B01B22ECB01BA0120E030E09D
:1008B000A9010E94A31C87FF0DC0C4014DE250E0B6
:1008C00060E070E020E030E00E947803F7FAF094F6
:1008D000F7F8F094C0E050E040E030E02FE313C0C0
:1008E000FA01B9018F2F942FA72FB22FBC01CD0190
:1008F00020E030E040E251E40E94A71C562F472F31
:10090000382F292FCF5FCB1559F7C701B601DA0170
:10091000F9010B2F142F2F2F3E2FA90198010E94B0
:100920003F1CF62E072F182FD92F862F902FA12F7F
:10093000BD2FBC01CD010E94141DC62FC72EE82E6D
:10094000D92E0E94401D9B01AC018F2D902FA12F0D
:10095000BD2FBC01CD010E943E1CF62E072FD82FC3
:10096000192FC4014C2F5C2D6E2D7D2D2AE030E017
:100970000E945A03BB2009F43FC0C40164E271E045
:100980000E94D40239C08F2D902FAD2FB12FBC0102
:10099000CD0120E030E040E251E40E94F21DEB0185
:1009A000182F092F9801862F9D2FA32FB22FBC013E
:1009B000CD010E940F1D6B017C01EE24D7FCE09459
:1009C000FE2CC401B701A6012AE030E00E947803A2
:1009D000C701B6010E94421D9B01AC01B8018C2FDA
:1009E0009D2FA72FB62FBC01CD010E943E1CF62ED5
:1009F000072FD82F192FBA94BB2029F6DF91CF915A
:100A00001F910F91FF90EF90DF90CF90BF909F903C
:100A10008F9008950E9445040895CF93DF93EC01D1
:100A20000E944504CE010E94C003DF91CF9108953A
:100A30003F924F925F926F927F928F929F92AF926E
:100A4000BF92CF92DF92EF92FF920F931F93CF93BB
:100A5000DF9300D000D0CDB7DEB7A82F8B0129835C
:100A60003A834B835C83809130018A1721F08F3F5A
:100A700009F0D3C104C0E2ECF0E034907FC0A09351
:100A80003001E2ECF0E034908FEF381609F4C5C184
:100A900091E0391639F1B2E03B1609F449C0332030
:100AA00009F06CC014BC15BC84B5826084BD85B5EA
:100AB000816085BD2A2F30E0F901E057FF4FE491B6
:100AC000F0E0EE0FFF1FE255FF4F85919491809368
:100AD000F6019093F70124583F4FF9012491209398
:100AE000F5014EC01092800010928100809181002B
:100AF0008860809381008091810081608093810073
:100B00002A2F30E0F901E057FF4FE491F0E0EE0FBB
:100B1000FF1FE255FF4F859194918093EF019093D1
:100B2000F00124583F4FF90124912093EE0128C091
:100B30001092B0001092B1008091B000826080935A
:100B4000B0008091B10081608093B1002A2F30E025
:100B5000F901E057FF4FE491F0E0EE0FFF1FE2557F
:100B6000FF4F859194918093E8019093E901245877
:100B70003F4FF90124912093E70102C037FC4DC19A
:100B80008A2F61E00E94E5094801AA24BB2460E0A5
:100B900072E18AE790E0A50194010E94961E33203D
:100BA00021F0F2E03F1609F0B6C029013A016901CF
:100BB0007A010894C108D108E108F1088FEFC8163E
:100BC000D104E104F10409F008F498C060E472E48F
:100BD0008FE090E0A50194010E94961E69017A01C0
:100BE0000894C108D108E108F10892E03916C9F467
:100BF000AFEFCA16D104E104F10409F008F485C08E
:100C000060E970ED83E090E0A50194010E94961EDA
:100C100069017A010894C108D108E108F10883E06C
:100C200001C082E0BFEFCB16D104E104F10409F06A
:100C300008F465C068E478EE81E090E0A5019401D5
:100C40000E94961E69017A010894C108D108E10842
:100C5000F1083320E1F0E2E03E16D9F4FFEFCF16C1
:100C6000D104E104F10409F008F451C064E274EF26
:100C700080E090E0A50194010E94961E69017A012E
:100C80000894C108D108E108F10885E003C083E0B9
:100C900001C084E09FEFC916D104E104F10479F1A9
:100CA00070F162E17AE780E090E0A50194010E9492
:100CB000961E69017A010894C108D108E108F1087B
:100CC000332011F484E001C086E0AFEFCA16D104EE
:100CD000E104F104A1F098F0730162019AE0F59447
:100CE000E794D794C7949A95D1F70894C108D1088E
:100CF000E108F108332031F087E00AC081E03320B9
:100D000011F006C085E085BD31C082E001C084E0FD
:100D10008093B1002BC069017A010894C108D10801
:100D2000E108F108B0E0CB16B0E0DB06B1E0EB067D
:100D3000B0E0FB0688F068E478EE81E090E0A50181
:100D400094010E94961E69017A010894C108D10895
:100D5000E108F10893E001C091E0E1E03E1631F4D2
:100D600080918100887F892B8093810089819A817D
:100D7000AB81BC810097A105B105A1F0B801660F58
:100D8000771F80E090E029813A814B815C810E944D
:100D9000551E28EE33E040E050E00E94741E8901A9
:100DA0009A0103C00FEF1FEF980191E03916A1F0EF
:100DB000A2E03A1619F1332081F5C7BC0093F8017F
:100DC0001093F9012093FA013093FB0180916E009A
:100DD000826080936E0021C0D0928900C09288000A
:100DE0000093F1011093F2012093F3013093F40189
:100DF00080916F00826080936F000FC0C092B3003B
:100E00000093EA011093EB012093EC013093ED0184
:100E1000809170008260809370000F900F900F900F
:100E20000F90DF91CF911F910F91FF90EF90DF9086
:100E3000CF90BF90AF909F908F907F906F905F907A
:100E40004F903F900895813041F0813018F082300A
:100E5000D1F409C010926E00089580916F008D7FCB
:100E600080936F000895809170008D7F8093700053
:100E700081E08093B0008091B100887F846080938E
:100E8000B1001092B3000895CF93C82F8091300124
:100E90008C1739F4E2ECF0E084919FEF90933001ED
:100EA00001C08FEF0E9423078C2F60E00E94060A8A
:100EB000CF9108951F920F920FB60F9211242F9386
:100EC0003F934F935F936F937F938F939F93AF93D2
:100ED000BF93EF93FF938091EA019091EB01A09172
:100EE000EC01B091ED010097A105B10551F1E09140
:100EF000E801F091E90180819091E70189278083E1
:100F00008091EA019091EB01A091EC01B091ED018B
:100F1000181619061A061B06C4F48091EA0190916E
:100F2000EB01A091EC01B091ED010197A109B1098C
:100F30008093EA019093EB01A093EC01B093ED0153
:100F400004C0809130010E944407FF91EF91BF914E
:100F5000AF919F918F917F916F915F914F913F9151
:100F60002F910F900FBE0F901F9018958230E8F4CC
:100F7000E82FF0E0EE0FFF1FE450FE4F7183608317
:100F8000813041F0809169008C7F842B80936900CF
:100F9000E89A089580916900440F551F440F551F2A
:100FA000837F842B80936900E99A0895823068F4E6
:100FB000813011F0E89801C0E998E82FF0E0EE0FD9
:100FC000FF1FE450FE4F1182108208951F920F926E
:100FD0000FB60F9211242F933F934F935F936F930C
:100FE0007F938F939F93AF93BF93EF93FF938091E2
:100FF000FC019091FD01009729F0E091FC01F09136
:10100000FD010995FF91EF91BF91AF919F918F9154
:101010007F916F915F914F913F912F910F900FBEF4
:101020000F901F9018951F920F920FB60F921124D8
:101030002F933F934F935F936F937F938F939F93E0
:10104000AF93BF93EF93FF938091FE019091FF01C7
:10105000009729F0E091FE01F091FF010995FF91C1
:10106000EF91BF91AF919F918F917F916F915F9120
:101070004F913F912F910F900FBE0F901F90189599
:101080001F920F920FB60F9211242F933F938F93BD
:101090009F93AF93BF938091000290910102A09122
:1010A0000202B091030230910802232F2D5F2D37E9
:1010B00020F40196A11DB11D05C0232F2A570296C9
:1010C000A11DB11D2093080280930002909301029C
:1010D000A0930202B0930302809104029091050252
:1010E000A0910602B09107020196A11DB11D809347
:1010F000040290930502A0930602B0930702BF91E9
:10110000AF919F918F913F912F910F900FBE0F90B4
:101110001F9018950F931F938FB7F89400910002BA
:101120001091010220910202309103028FBFB80199
:10113000C9011F910F9108950F931F939FB7F894C2
:1011400000910402109105022091060230910702DD
:1011500086B5A89B06C08F3F21F00F5F1F4F2F4F12
:101160003F4F9FBF322F212F102F0027080F111D37
:10117000211D311D42E0000F111F221F331F4A9510
:10118000D1F7B801C9011F910F910895CF92DF9255
:10119000EF92FF92CF93DF936B017C010E949C083A
:1011A000DC01CB01EC010FC00E949C086C1B7D0B85
:1011B00083E0683E780738F00894C108D108E10858
:1011C000F108C851DC4FC114D104E104F10461F706
:1011D000DF91CF91FF90EF90DF90CF90089501972E
:1011E00039F0880F991F880F991F02970197F1F71F
:1011F0000895789484B5826084BD84B5816084BD8F
:1012000085B5826085BD85B5816085BDEEE6F0E07F
:10121000808181608083E1E8F0E0108280818260DB
:101220008083808181608083E0E8F0E0808181605C
:101230008083E1EBF0E0808184608083E0EBF0E08C
:10124000808181608083EAE7F0E080818460808330
:1012500080818260808380818160808380818068DA
:1012600080831092C10008958093310108958E30DB
:1012700008F08E508770909131019295990F990FD7
:10128000907C982B90937C0080917A00806480936E
:101290007A0080917A0086FDFCCF80917800909151
:1012A0007900392F20E090E0822B932B08951F9333
:1012B000CF93DF93182FEB0161E00E94E50920979F
:1012C00011F4812F4CC0CF3FD10511F4812F49C0BB
:1012D000E12FF0E0E859FF4FE491E330C1F0E43052
:1012E00028F4E13051F0E230B1F50CC0E63019F1EC
:1012F000E73049F1E43079F514C084B5806884BDE5
:10130000C7BD32C084B5806284BDC8BD2DC0809188
:101310008000806880938000D0938900C09388000B
:1013200023C080918000806280938000D0938B00E6
:10133000C0938A0019C08091B00080688093B0008B
:10134000C093B30011C08091B00080628093B00060
:10135000C093B40009C0812FC038D10514F460E0F7
:1013600001C061E00E94060ADF91CF911F910895AC
:10137000833071F0843028F48130A1F0823021F57F
:1013800014C08630B1F08730D1F08430E9F404C065
:10139000809180008F7703C0809180008F7D809343
:1013A0008000089584B58F7702C084B58F7D84BD99
:1013B00008958091B0008F778093B0000895809158
:1013C000B0008F7D8093B000089590E0FC01E45858
:1013D000FF4F2491FC01E057FF4FE491EE23A9F069
:1013E000F0E0EE0FFF1FE854FF4F85919491DC0170
:1013F0009FB7F8948C91662329F4209582238C93CF
:101400009FBF0895822B8C939FBF08950F931F93C6
:10141000CF93DF930F92CDB7DEB7282F30E0F901DD
:10142000E859FF4F8491F901E458FF4F1491F901F5
:10143000E057FF4F04910023D1F0882321F0698306
:101440000E94B8096981E02FF0E0EE0FFF1FE2551E
:10145000FF4F85919491DC019FB7F8948C9166239E
:1014600019F41095812301C0812B8C939FBF0F909D
:10147000DF91CF911F910F910895CF93DF93282F84
:1014800030E0F901E859FF4F8491F901E458FF4F2A
:10149000C491F901E057FF4FD491DD2391F08823E7
:1014A00011F00E94B809ED2FF0E0EE0FFF1FEC5590
:1014B000FF4F85919491FC0120812C2381E090E0E5
:1014C00011F480E090E0DF91CF910895AF92BF9248
:1014D000CF92DF92EF92FF920F931F93CF93DF9300
:1014E00090E0FC01E458FF4F149180579F4FFC019E
:1014F000C491662311F4D0E001C0D12FCA01B90113
:1015000020E83EE340E050E00E94551E0E94741E19
:1015100069017A0180E090E0DC012C2F30E0F901D4
:10152000EE0FFF1FEC55FF4FA590B4900EC0AC011D
:10153000BD014F5F5F4F6F4F7F4F8C159D05AE050F
:10154000BF0509F450C0DB01CA01F5014081412308
:101550004D1769F30FC0AC01BD014F5F5F4F6F4F77
:101560007F4F8C159D05AE05BF0509F43CC0DB011E
:10157000CA0107C0220F331F2C553F4FF901A59018
:10158000B490F501408141234D1729F740E050E028
:10159000BA01F901259134910CC08C159D05AE0559
:1015A000BF0509F10196A11DB11D4F5F5F4F6F4F40
:1015B0007F4FF901E081E123ED1779F3CB01BA0107
:1015C00028E032E540E050E00E94551E6058714C22
:1015D0008F4F9F4F20E83EE340E050E00E94741E92
:1015E00089019A0103C000E010E09801B801C90127
:1015F000DF91CF911F910F91FF90EF90DF90CF90EF
:10160000BF90AF900895CF92DF92EF92FF920F9329
:101610001F93CF93DF93182FF62EE42EC7E0D0E070
:1016200000E087E0C82ED12C8F2D61E00E94060AD1
:10163000812FEE2069F40E943D0A96012C1B3D0B80
:10164000AC0102C0440F551F2A95E2F7042B09C0D4
:101650000E943D0A0C2E02C0880F991F0A94E2F7DF
:10166000082B8F2D60E00E94060A21978FEFCF3F55
:10167000D807D1F6802FDF91CF911F910F91FF9066
:10168000EF90DF90CF900895BF92CF92DF92EF92CC
:10169000FF920F931F93CF93DF93182F062FB42E33
:1016A000C7E0D0E0E22EFF2497E0C92ED12CBB206A
:1016B00059F4B6016C1B7D0BC70102C09595879547
:1016C0006A95E2F7BC0107C0B7010C2E02C0759500
:1016D00067950A94E2F76170812F0E94060A802FB5
:1016E00061E00E94060A802F60E00E94060A2197AE
:1016F0008FEFCF3FD807D9F6DF91CF911F910F9190
:10170000FF90EF90DF90CF90BF900895009729F061
:10171000BC0180E090E00E9439200895CF92DF92D2
:10172000EF92FF920F931F936B017C01611571057E
:101730008105910549F00E943420A70196010E947D
:10174000961E8B019C0103C000E010E09801B801D7
:10175000C9011F910F91FF90EF90DF90CF900895F6
:10176000CF92DF92EF92FF926B017C01DA01C90107
:10177000C216D306E406F50674F48C199D09AE0969
:10178000BF09BC01CD010E948E0BDC01CB01C80E4C
:10179000D91EEA1EFB1EB601C701FF90EF90DF9035
:1017A000CF9008954F925F926F927F928F929F9207
:1017B000AF92BF92CF92DF92EF92FF920F931F935F
:1017C000CF93DF9300D000D0CDB7DEB729833A8323
:1017D0004B835C8327013801760165012F89388DA1
:1017E000498D5A8D89809A80AB80BC8068197909AF
:1017F0008A099B092C193D094E095F090E94551E53
:10180000481859086A087B08A30192010E94961E95
:1018100089019A010C0D1D1D2E1D3F1DB801C90126
:101820000F900F900F900F90DF91CF911F910F911C
:10183000FF90EF90DF90CF90BF90AF909F908F90F0
:101840007F906F905F904F900895089570E0382FCB
:1018500020E0622B732BCB010895CF93DF93EC0133
:10186000888199810E944D1F1B821A821D821C82D1
:10187000DF91CF910895CF93DF93EC01CB017B8370
:101880006A8301960E94B71E99838883009721F48A
:101890001B821A821D821C82DF91CF9108950F93C3
:1018A0001F93CF93DF938C01EB01209711F4C2E3D8
:1018B000D1E0EC2FFD2FDF010D900020E9F7BD01F5
:1018C000615070406E1B7F0BF80175836483C80103
:1018D0000E943B0CD8018D919C911197009719F0B3
:1018E000BE010E947621DF91CF911F910F91089543
:1018F0000F931F93CF93DF93EC018B01FB01648166
:1019000075817D836C830E943B0C8881998100974F
:1019100029F0F801608171810E947621DF91CF91D9
:101920001F910F9108951F93CF93DF93EC01162F12
:1019300081E090E09D838C83CE0161E070E00E94A5
:101940003B0CE881F981309721F01083E881F9811F
:101950001182DF91CF911F9108951F93CF93DF9351
:10196000EC01162F81E090E09D838C83CE0161E035
:1019700070E00E943B0CE881F981309721F01083E0
:10198000E881F9811182DF91CF911F910895EF9243
:10199000FF920F931F93CF93DF93CDB7DEB7A1973D
:1019A0000FB6F894DEBF0FBECDBF7C01CB018E0118
:1019B0000F5F1F4FB8010E94BF21F8010190002066
:1019C000E9F7BF0161507040601B710BF70175832F
:1019D0006483C7010E943B0CF701808191810097CD
:1019E00019F0B8010E947621A1960FB6F894DEBFD7
:1019F0000FBECDBFDF91CF911F910F91FF90EF9060
:101A00000895EF92FF920F931F93CF93DF93CDB77B
:101A1000DEB7A1970FB6F894DEBF0FBECDBF7C0135
:101A20009A0180E090E08E010F5F1F4FA8010E9495
:101A30002922F80101900020E9F7BF0161507040B0
:101A4000601B710BF70175836483C7010E943B0C17
:101A5000F70180819181009719F0B8010E947621E9
:101A6000A1960FB6F894DEBF0FBECDBFDF91CF9128
:101A70001F910F91FF90EF900895EF92FF920F93B7
:101A80001F93CF93DF93CDB7DEB7A1970FB6F8942E
:101A9000DEBF0FBECDBF7C01CB01BA018E010F5F4F
:101AA0001F4FA8010E94E021F80101900020E9F7F2
:101AB000BF0161507040601B710BF7017583648337
:101AC000C7010E943B0CF70180819181009719F0BA
:101AD000B8010E947621A1960FB6F894DEBF0FBE22
:101AE000CDBFDF91CF911F910F91FF90EF9008959F
:101AF000EF92FF920F931F93CF93DF93CDB7DEB793
:101B0000A1970FB6F894DEBF0FBECDBF7C01CB010D
:101B1000BA018E010F5F1F4FA8012AE030E00E943A
:101B20002922F80101900020E9F7BF0161507040BF
:101B3000601B710BF70175836483C7010E943B0C26
:101B4000F70180819181009719F0B8010E947621F8
:101B5000A1960FB6F894DEBF0FBECDBFDF91CF9137
:101B60001F910F91FF90EF900895DC01ED91FC9192
:101B70001197E60FF71F80810895FC018081918104
:101B8000009749F0248135816217730720F4680FAC
:101B9000791FFB0140830895FB0160817181FC0185
:101BA000808191810E946D2108950F931F93CF939F
:101BB000DF93EC018B0186179707F9F0FB01248175
:101BC00035818C819D818217930750F4888199819A
:101BD0000E944D1FF80164817581CE010E943B0C6B
:101BE00088819981009749F0F801248135813D83EE
:101BF0002C83608171810E947621CE01DF91CF918B
:101C00001F910F9108950F931F93CF93DF93EC01D2
:101C10008B01FB01648175818C819D81680F791F27
:101C20007D836C838A819B8186179707C8F46F5FD9
:101C30007F4F888199810E9444209C018C819D81E5
:101C40002115310529F0398328839B838A8308C0B5
:101C5000F80124813581821B930B9D838C8307C0FF
:101C6000F80160817181888199810E945721CE019C
:101C7000DF91CF911F910F9108950E94030E089557
:101C8000DC01FB0114968D919C911597248135817F
:101C90008217930759F4608171818D919C910E9404
:101CA0006D219C0181E02115310509F080E090E073
:101CB0000895DC01FB0114968D919C911597248168
:101CC00035818217930769F4608171818D919C91B0
:101CD0000E946D219C0181E02115310519F480E0FD
:101CE00001C081E090E00895FB0160817181FC01F9
:101CF000808191810E946D21892F881F8827881FEC
:101D000090E00895FB0160817181FC0180819181E7
:101D10000E946D2121E030E01816190614F020E031
:101D200030E0C9010895FB0160817181FC0180816F
:101D300091810E946D2121E030E01816190614F4FB
:101D400020E030E0C9010895FB0160817181FC0150
:101D5000808191810E946D21892F8095881F88271D
:101D6000881F90E00895FC018481958168177907A8
:101D700020F480819181009729F41092090289E072
:101D800092E00895860F971F0895DC01ED91FC9174
:101D90001197E60FF71F80810895FC01DB01248174
:101DA000358114968D919C9115972817390788F0E5
:101DB000281B390B808191816D917C91820F931F3B
:101DC0000E946D219C0181E02115310519F080E010
:101DD000089580E00895DC01FB0114968D919C919B
:101DE0001597248135818217930769F46081718189
:101DF0008D919C910E946D219C0181E021153105FE
:101E000019F080E0089580E00895EF92FF920F931B
:101E10001F93CF93DF9300D000D000D0CDB7DEB7B3
:101E20008C01FB01E42EF22E608171816115710538
:101E300021F4BF010E94780C19C0CE0101960E94C6
:101E40004F0C89819A8102C0FC01F0826E2D70E0F6
:101E50000E9462210097C1F7C801BE016F5F7F4FEA
:101E60000E94780CCE0101960E942D0CC801269686
:101E70000FB6F894DEBF0FBECDBFDF91CF911F919B
:101E80000F91FF90EF900895CF93DF93FC01CA016B
:101E9000248135814217530760F4C081D1818C0FB2
:101EA0009D1F70E00E946221009719F08C1B9D0B12
:101EB00002C08FEF9FEFDF91CF91089540E050E097
:101EC0000E94440F0895CF93DF93FC018481958194
:101ED0004817590778F4C081D181FB016081718175
:101EE000CE01840F951F0E94A521009719F08C1B2D
:101EF0009D0B02C08FEF9FEFDF91CF91089540E0DF
:101F000050E00E94630F0895DF92EF92FF920F93CB
:101F10001F93CF93DF93EC018C819D814817590764
:101F2000D8F47A010894E11CF11CE881F981EE0DE6
:101F3000FF1DD080108208811981C80170E00E94C5
:101F40009A210E0D1F1DF801D082009729F02881DB
:101F50003981821B930B02C08FEF9FEFDF91CF91EE
:101F60001F910F91FF90EF90DF900895FC01448145
:101F70005581415050400E94840F0895FC01DB01BF
:101F80009A0114964D915C91159784819581841BDB
:101F9000950B8217930778F0808191816D917C91E8
:101FA000820F931F0E947D219C0181E02115310544
:101FB00019F080E0089580E00895FC0124813581C6
:101FC000FB01448155812417350728F040E050E09B
:101FD0000E94BE0F089580E00895CF92DF92FF9295
:101FE0000F931F93CF93DF936C018B012417350759
:101FF00028F4942F852FA901292F382FD801149662
:102000008D919C911597E9018217930708F4EC01D3
:10201000D801ED91FC911197EC0FFD1FF08010821B
:102020006D917C91640F751FC6010E944F0CD80101
:10203000ED91FC911197EC0FFD1FF082C601DF912D
:10204000CF911F910F91FF90DF90CF900895CF9384
:10205000DF93EC01FB01248135810E94ED0FCE015D
:10206000DF91CF910895AF92BF92CF92DF92EF921E
:10207000FF920F931F93CF93DF9300D000D000D037
:10208000CDB7DEB76C017B01DB0114968D919C917D
:1020900015970097A1F101974817590780F1F601AC
:1020A000848195814817590750F5ED91FC9111975E
:1020B000B0808A0122C0D601ED91FC911197E00F0A
:1020C000F11F80818B15B9F4F70124813581200F30
:1020D000311FCE010196B601A8010E94ED0FCE017D
:1020E0000196B7010E94EB0EA82ECE0101960E9428
:1020F0002D0CAA2031F40150104017FFDCCF0FEF58
:102100001FEFC80126960FB6F894DEBF0FBECDBFF5
:10211000DF91CF911F910F91FF90EF90DF90CF90C3
:10212000BF90AF900895FC0144815581FB0124814B
:102130003581421B530B0E94331008956F927F929A
:102140008F929F92AF92BF92CF92DF92EF92FF92C7
:102150000F931F93CF93DF93CDB7DEB768970FB67A
:10216000F894DEBF0FBECDBF5C01FB014A0139010F
:10217000608171816115710521F4BF010E94780CA5
:1021800056C083E1E82EF12CEC0EFD1EC7010E9423
:102190004F0C8E01035F1F4FC80162E371E00E9484
:1021A0004F0C680129C00796B70140E050E0980144
:1021B0000E94ED0FC601BE01695F7F4F0E94030EB2
:1021C000CE0107960E942D0CC601B3010E94030E9A
:1021D000F40144815581400F511FCE010196B70192
:1021E0000E942710C701BE016F5F7F4F0E94D50D6F
:1021F000CE0101960E942D0CC701B4010E947F0FF1
:102200008C01CE01FFEF0F3F1F0769F60D96B70156
:102210000E94030EC501BE01635F7F4F0E94780CD0
:10222000CE010D960E942D0CC7010E942D0CC501F8
:1022300068960FB6F894DEBF0FBECDBFDF91CF9189
:102240001F910F91FF90EF90DF90CF90BF90AF90D4
:102250009F908F907F906F900895CF92DF92EF9232
:10226000FF920F931F93CF93DF937C016B01FB01D0
:10227000608171810E944F0C00E010E00CC0F701FA
:10228000C081D181C00FD11F888190E00E943E2182
:1022900088830F5F1F4FF601848195810817190706
:1022A00070F3C701DF91CF911F910F91FF90EF90D5
:1022B000DF90CF900895EF92FF920F931F93CF93EB
:1022C000DF93CDB7DEB72C970FB6F894DEBF0FBE05
:1022D000CDBFFC018B018617970741F18481958161
:1022E000DB0114962D913C9115978217930701F508
:1022F000CE010796BF010E942D11EF80F884CE0118
:102300000196B8010E942D1169817A81C7010E944E
:102310006D2101E0009709F000E0CE0101960E94D6
:102320002D0CCE0107960E942D0C03C001E001C0C8
:1023300000E0802F2C960FB6F894DEBF0FBECDBF05
:10234000DF91CF911F910F91FF90EF900895CF9261
:10235000DF92EF92FF920F931F93CF93DF937C0155
:102360006B01FB01608171810E944F0C00E010E065
:102370000CC0F701C081D181C00FD11F888190E0CE
:102380000E94462188830F5F1F4FF601848195814B
:102390000817190770F3C701DF91CF911F910F91B3
:1023A000FF90EF90DF90CF900895AF92BF92CF92C1
:1023B000DF92EF92FF920F931F93CF93DF9300D0A2
:1023C00000D000D0CDB7DEB75C016B01DB016D91B1
:1023D0007C9111976115710521F4B6010E94780C6A
:1023E0003CC0CE0101960E944F0CF601048115817C
:1023F000EE24FF240EC0D601ED91FC91EE0DFF1DE1
:10240000808190E00E943621009731F00894E11C11
:10241000F11CE016F10679F70D811E810BC0D60183
:10242000ED91FC91E00FF11F808190E00E94362138
:10243000009729F001501040E016F10680F3980152
:102440002F5F3F4FC501BE016F5F7F4FA7010E9405
:10245000ED0FCE0101960E942D0CC50126960FB6F8
:10246000F894DEBF0FBECDBFDF91CF911F910F91CA
:10247000FF90EF90DF90CF90BF90AF9008950F93B3
:102480001F93CF93DF93FC018B0141155105A1F000
:102490006115710589F084819581EA0121978C1776
:1024A0009D0708F4EC0160817181C801AE010E94B2
:1024B0008B21C00FD11F1882DF91CF911F910F91F7
:1024C00008950F931F93CF93DF93FC018B01411568
:1024D0005105A1F06115710589F084819581EA01AA
:1024E00021978C179D0708F4EC0160817181C80168
:1024F000AE010E948B21C00FD11F1882DF91CF91B6
:102500001F910F910895FC01808191810E940F21FC
:102510000895C0E285B18C2785B980E591E063E339
:1025200071E00E94010464EF71E080E090E00E949D
:10253000C608F0CFC0E285B18C2785B980E591E06F
:102540006CE371E00E94010468EE73E080E090E0CB
:102550000E94C608F0CFFFCF8FEF84B90E94F90820
:1025600080E591E040E855E260E070E00E94AC0157
:1025700089E492E09EBF8DBF89E892E040E450E09C
:1025800060E070E00E947F14882341F50E94651688
:102590008AE892E060E14AE952E100E010E0980147
:1025A00076E6E72E73E0F72EECECAE2EB12CC12CC4
:1025B000D12C0E942E14C82F87E693E060E149E8F1
:1025C00052E100E010E09801F3E4EF2EF4E0FF2E7A
:1025D0000E942E14CC2311F40E94C413FFCFFFCF0E
:1025E0008091490490914A04019690934A04809303
:1025F000490408958091490490914A04009729F470
:102600008091470490914804089580E090E00895F7
:10261000CF93DF939C01DB01009799F1109789F12B
:10262000EC0188819981FC01EC01309731F05281F5
:1026300012964C9112974517F0F4E817F90761F4D8
:10264000E901B983A8831A961C921E9219971C96C9
:10265000FC93EE931B970AC01A96DC93CE931997BE
:102660001C96FC93EE931B97BC87AB87309759F071
:10267000B287A18708C053854485EF01E52FF42F69
:10268000D4CF89EC01C080E0DF91CF910895CF9342
:10269000DF93EC01009799F0E881F981309789F098
:1026A000A385B485B983A883109721F01A961C924C
:1026B0001E921997128611861486138602C0E0E0D6
:1026C000F0E0CF01DF91CF910895CF93DF93EC013C
:1026D0000097B1F188819981009791F1DC019C010B
:1026E00002C09D01DA01A617B70719F51B96ED91F7
:1026F000FC911C97A817B90739F4F983E883309740
:1027000071F0128611860BC0E901FC87EB871B96DE
:10271000ED91FC911C97309711F0328721871C9620
:102720001C921E921B971A961C921E921997CD010D
:1027300009C01B964D915C911C974115510589F676
:1027400080E090E0DF91CF910895CF93DF93DC019B
:102750000097A1F0ED91FC911197309789F082815B
:10276000681760F0C385D4851196DC93CE932097CB
:1027700039F01A8619861486138602C0E0E0F0E06C
:10278000CF01DF91CF91089581E08093440485E4E7
:1027900094E06FEF0E94A513009731F090934804E6
:1027A000809347040E94BE000895FF920F931F93E9
:1027B000CF93DF93909144049923E9F1FFB6F89405
:1027C0000091470410914804F8019585913071F407
:1027D00085E494E00E944713BC010817190741F1F2
:1027E0009093480480934704C80120C0F801628197
:1027F000813039F06623F1F070E06150704077FD70
:1028000019C085E494E00E94A513EC01009791F0B3
:1028100085E494E0B8010E9408130C171D0741F0ED
:10282000D0934804C0934704C801BE010E948D00A4
:10283000F8011586FFBEDF91CF911F910F91FF9098
:1028400008952091490430914A042150304030933A
:102850004A04209349040E94D5130895AF92BF9271
:10286000CF92DF92EF92FF920F931F93CF93DF935C
:10287000EC01E62FB7012097A1F14115510589F12F
:10288000E114F10471F1A114B104C104D10449F1BE
:102890001D86EA831A8619861C861B86188A1F865F
:1028A0005C834B830D831E832F833887CE010E9468
:1028B00022160FB7F89485E494E0BE010E94081335
:1028C0000FBF882311F08CEC0FC08091440481303D
:1028D00051F40E94FA12009731F080E00E94D51363
:1028E00002C089EC01C080E0DF91CF911F910F9170
:1028F000FF90EF90DF90CF90BF90AF900895AF9290
:10290000BF92CF92DF92EF92FF920F931F937C01C1
:102910005A016B0110924804109247041092460429
:1029200010924504109244048BE494E06FEF4FEE54
:1029300052E100E010E098010E942E141F910F91C7
:10294000FF90EF90DF90CF90BF90AF9008951F93CE
:10295000CF93DF93EC010097B1F01FB7F894E881B3
:10296000F98182E0868768817981FB01108A178668
:102970008A819B810E9465136881798185E494E056
:102980000E9408131FBFDF91CF911F910895FC0192
:10299000009739F01382128214821182108280E033
:1029A000089589EC0895CF92DF92EF92FF920F93F2
:1029B0001F93CF93DF930F92CDB7DEB78C010097B3
:1029C000B9F119828AECE82EFFB6F894C8010E948A
:1029D00047136C010097F9F0FC01E68685E494E06A
:1029E000B6010E940813882319F0FFBE0CEC15C035
:1029F000F60187859089009751F00E94141B882367
:102A000019F0FFBE0DEC09C0F601108A1786FFBE53
:102A1000F1E0F983D9CFFFBE00E08981813049F42C
:102A20000E94FA12009729F080E00E94D51301C09D
:102A300009EC802F0F90DF91CF911F910F91FF90A4
:102A4000EF90DF90CF9008958F929F92AF92BF92B8
:102A5000DF92EF92FF920F931F93CF93DF93CDB747
:102A6000DEB72E970FB6F894DEBF0FBECDBF7C0148
:102A70004A015B01009709F46EC00E94FA128C01B2
:102A8000DFB6F894009719F4DFBE88EC65C0F70153
:102A900082819381009709F44EC08017910709F451
:102AA0004AC0B7FC45C0C701B8010E94081388237B
:102AB00019F0DFBE8CEC50C081E0F80185878114ED
:102AC0009104A104B10411F11A830983FC82EB8201
:102AD00087EA94E19E838D83CE01019698878F8348
:102AE00089869A86AB86BC86CE010596908B8787B1
:102AF0000E94ED1A882369F0C701B8010E9465138E
:102B0000F8011586108A17868DEC04C0F801108A2A
:102B1000178680E0DFBE8823F9F40E94D513F80100
:102B200086858823C9F4F70194819F5F948314C03C
:102B3000DFBE83E011C0F70124812F3F39F02F5F02
:102B40002483009729F41383028302C08BEC01C015
:102B500080E0DFBE01C089EC2E960FB6F894DEBF90
:102B60000FBECDBFDF91CF911F910F91FF90EF90DE
:102B7000DF90BF90AF909F908F900895FF920F933A
:102B80001F93CF93DF93EC01009709F43FC00E949D
:102B9000FA12FFB6F8942A813B812817390719F0F9
:102BA000FFBECFEC34C08C8181508C83882359F5D3
:102BB0001B821A8288819981009729F1CE010E9497
:102BC00047138C0185E494E0B8010E940813882320
:102BD00019F0FFBECCEC1BC0F80116861B830A83DC
:102BE00087859089009721F00E94141B882329F47F
:102BF000F801108A1786C0E001C0CDECFFBE80E06E
:102C00000E94D51304C0FFBEC0E001C0C9EC8C2FE8
:102C1000DF91CF911F910F91FF9008950E94FA12BA
:102C2000DC017894009769F01396ED91FC9114976C
:102C3000309739F015966D917D918D919C911897F3
:102C400009950895DC018EE096E1FB0180833197C0
:102C50009083FB0132971082FB0133971082FB01B6
:102C600034971082FB0135971082FB013697108252
:102C7000FB0137971082FB0138971082FB013997CF
:102C80001082FB013A971082FB013B971082FB01F7
:102C90003C971082FB013D971082FB013E9710820A
:102CA000FB013F971082FB0170971082FB01719727
:102CB0001082FB0172971082FB017397108264519E
:102CC000704011967C936E93089587E290E0909304
:102CD00089008093880082E080936F008CE080936D
:102CE000810008951F920F920FB60F9211242F9317
:102CF0003F934F935F936F937F938F939F93AF9384
:102D0000BF93EF93FF930E94F0120E94521B81E049
:102D10000E942114FF91EF91BF91AF919F918F91EC
:102D20007F916F915F914F913F912F910F900FBEC7
:102D30000F901F9018951F920F920FB60F921124AB
:102D40000F900FBE0F901F9018951F93CF93DF9396
:102D5000EC010097B1F01FB7F894E881F98182E0A7
:102D6000868768817981FB01108A17868C819D8115
:102D70000E9465136881798185E494E00E940813BC
:102D80001FBFDF91CF911F910895CF92DF92EF92F5
:102D9000FF920F931F93CF93DF93EC018C819D8162
:102DA0002E853F85820F931F4E815F810E944E21A9
:102DB0004E815F8168857985CE84DF84E888F988D3
:102DC000C40ED51EE61EF71ECE86DF86E88AF98A77
:102DD0008E899F89A88DB98D0196A11DB11D8E8BFD
:102DE0009F8BA88FB98F0A851B852C853D85CB01CC
:102DF000BA01A90198010E94551EDC01CB01C81639
:102E0000D906EA06FB0620F01E861F86188A198A54
:102E1000CE0102960E944713EC01009791F085E4E1
:102E200094E0BE010E940813882369F41E868F85F2
:102E30009889009721F00E94141B882331F4188A86
:102E40001F8680E003C08CEC01C08DECDF91CF9138
:102E50001F910F91FF90EF90DF90CF900895CF9248
:102E6000DF92EF92FF920F931F93CF93DF93EC01CA
:102E7000CB012C813D814A895B89240F351F4E810E
:102E80005F81B9010E944E214E815F8168857985FD
:102E9000CA88DB88EC88FD88C40ED51EE61EF71EA6
:102EA000CA8ADB8AEC8AFD8A8E899F89A88DB98DB2
:102EB0000197A109B1098E8B9F8BA88FB98F0A85C5
:102EC0001B852C853D85CB01BA01A90198010E9483
:102ED000551EDC01CB01C816D906EA06FB0620F018
:102EE0001A8A1B8A1C8A1D8ACE010E944713EC0194
:102EF000009791F085E494E0BE010E9408138823B6
:102F000069F41E868F859889009721F00E94141B12
:102F1000882331F4188A1F8680E003C08CEC01C03E
:102F20008DECDF91CF911F910F91FF90EF90DF908B
:102F3000CF900895EF92FF920F931F93CF93DF935B
:102F4000FC01EB01BA01A901309741F1209731F161
:102F5000411551056105710509F1E114F1040105FF
:102F60001105E1F0D583C483468357836087718759
:102F7000E286F386048715871182108213821282FB
:102F800016861786108A118A128A138A148A158A5D
:102F9000168A178A108E118E80E001C089ECDF91AD
:102FA000CF911F910F91FF90EF900895AF92BF9234
:102FB000DF92EF92FF920F931F93CF93DF937C01E9
:102FC0000097E9F100E082E0A82EB12CAE0CBF1C06
:102FD0009AECD92E1FB7F894C5010E944713EC0153
:102FE000009731F4C7010E944713EC010097D9F014
:102FF000DE8685E494E0BE010E940813882319F060
:103000001FBFCCEC12C08F859889009749F00E94B1
:10301000141B882319F01FBFCDEC07C0188A1F8628
:103020001FBF01E0D7CF1FBFC0E0013049F40E94AD
:10303000FA12009729F080E00E94D51301C0C9EC74
:103040008C2FDF91CF911F910F91FF90EF90DF9028
:10305000BF90AF9008954F925F926F927F928F9240
:103060009F92AF92BF92CF92DF92FF920F931F93E6
:10307000CF93DF93CDB7DEB761970FB6F894DEBF7D
:103080000FBECDBF6C014A015B012901009709F415
:1030900080C02115310509F47CC0FFB6F894FC010D
:1030A00086899789A08DB18D0097A105B10509F09A
:1030B00060C077FD5BC00E94FA128C01009709F492
:1030C00052C022E0622E712C6C0C7D1CC301B80131
:1030D0000E940813882309F043C081E0F801858726
:1030E00081149104A104B10421F11A830983DC82C3
:1030F000CB827E826D8285EA96E198878F83CE01AE
:1031000001969A8789878B869C86AD86BE86CE017E
:103110000796908B87870E94ED1A882369F0C30178
:10312000B8010E946513F8011586108A17862DECE8
:1031300004C0F801108A178620E0FFBE222351F553
:1031400080E00E94D513F8012685222319F50FB7D8
:10315000F894C601B2010E942F17282F0FBF1AC082
:10316000FFBE2CEC17C0FFBE28EC14C0FFBE23E04E
:1031700011C0C601B9010E942F17FFBE898B0E94A2
:10318000FA122989009731F080E00E94D51329892D
:1031900001C029EC822F61960FB6F894DEBF0FBEF6
:1031A000CDBFDF91CF911F910F91FF90DF90CF9016
:1031B000BF90AF909F908F907F906F905F904F9057
:1031C00008956F927F928F929F92AF92BF92DF92FB
:1031D000EF92FF920F931F93CF93DF93CDB7DEB79C
:1031E00061970FB6F894DEBF0FBECDBF7C014A01D8
:1031F0005B013901009709F480C02115310509F4FC
:103200007CC0DFB6F894FC0146895789608D718DCA
:1032100082859385A485B585481759076A077B077A
:1032200009F05BC0B7FC56C00E94FA128C010097EF
:1032300009F44DC0C701B8010E940813882309F0A2
:1032400043C081E0F801858781149104A104B10491
:1032500021F11A830983FC82EB82ED82FE8285EAEA
:1032600096E198878F83CE0101969A8789878B860E
:103270009C86AD86BE86CE010796908B87870E947E
:10328000ED1A882369F0C701B8010E946513F8019F
:103290001586108A17862DEC04C0F801108A17864F
:1032A00020E0DFBE222351F580E00E94D513F80113
:1032B0002685222319F50FB7F894C701B3010E94A0
:1032C000C516282F0FBF1AC0DFBE2CEC17C0DFBEFB
:1032D00028EC14C0DFBE23E011C0C701B9010E9471
:1032E000C516DFBE898B0E94FA122989009731F03A
:1032F00080E00E94D513298901C029EC822F6196B4
:103300000FB6F894DEBF0FBECDBFDF91CF911F91F6
:103310000F91FF90EF90DF90BF90AF909F908F90B4
:103320007F906F9008951F93CF93DF93EC010097E8
:10333000B1F01FB7F894E881F98182E0868768814F
:103340007981FB01108A17868A819B810E9465130F
:103350006881798185E494E00E9408131FBFDF91A2
:10336000CF911F910895FC01009729F0628311828B
:10337000108280E0089589EC0895CF92DF92EF9259
:10338000FF920F931F93CF93DF930F92CDB7DEB7CA
:103390008C010097B9F119828AECE82EFFB6F894F7
:1033A000C8010E9447136C010097F9F0FC01E68602
:1033B00085E494E0B6010E940813882319F0FFBE4B
:1033C0000CEC15C0F60187859089009751F00E949A
:1033D000141B882319F0FFBE0DEC09C0F601108AFA
:1033E0001786FFBEF1E0F983D9CFFFBE00E08981E7
:1033F000813049F40E94FA12009729F080E00E947F
:10340000D51301C009EC802F0F90DF91CF911F9150
:103410000F91FF90EF90DF90CF9008958F929F9241
:10342000AF92BF92CF92DF92FF920F931F93CF93F1
:10343000DF93CDB7DEB72E970FB6F894DEBF0FBE81
:10344000CDBF6C014A015B01009709F45AC0FFB679
:10345000F894FC018281882309F04DC077FD48C0B3
:103460000E94FA128C01009709F43FC0C601B8010E
:103470000E940813882319F0FFBE8CEC43C081E042
:10348000F801858781149104A104B10411F11A8314
:103490000983DC82CB8283E999E19E838D83CE010F
:1034A000019698878F8389869A86AB86BC86CE01E3
:1034B0000596908B87870E94ED1A882369F0C601D4
:1034C000B8010E946513F8011586108A17868DECE5
:1034D00004C0F801108A178680E0FFBE882391F4AB
:1034E0000E94D513F80186850DC0FFBE88EC0AC086
:1034F000FFBE83E007C08150F6018283FFBE80E0FB
:1035000001C089EC2E960FB6F894DEBF0FBECDBF7A
:10351000DF91CF911F910F91FF90DF90CF90BF90DF
:10352000AF909F908F9008951F93CF93DF93009754
:10353000B9F11FB7F894FC012081318121153105C3
:1035400021F10E944713EC0185E494E0BE010E9442
:103550000813882319F01FBFCCEC23C01E868F856B
:103560009889009721F00E94141B882321F4188A5F
:103570001F86C0E001C0CDEC1FBF0E94FA12009769
:1035800081F080E00E94D5130CC0FC0122812F3F06
:1035900021F02F5F2283C0E001C0CBEC1FBF01C030
:1035A000C9EC8C2FDF91CF911F910895009721F0E6
:1035B000FC01628380E0089589EC0895CF93009721
:1035C00051F0CFB7F894FC016081718185E494E0FB
:1035D0000E940813CFBFCF910895FC01009701F11D
:1035E000808191810097E1F084819581A681B781E6
:1035F0000097A105B105B1F02FB7F89480915C0454
:1036000090915D04009719F41186108602C091878D
:103610008087F0935D04E0935C042FBF80E0089501
:1036200089EC089589EC0895009731F14FB7F8942B
:1036300020915C0430915D04F901D90118C0E817AC
:10364000F90781F480859185E217F30729F49093B7
:103650005D0480935C0404C019969C938E93189724
:1036600080E008C060855185DF01E62FF52F309797
:1036700031F78EEC4FBF089589EC089560915E0498
:1036800070915F0480916004909161040895DC0161
:10369000CB0180935E0490935F04A0936004B09389
:1036A000610408950F931F93CF93DF938091440497
:1036B000882309F447C080915E0490915F04A09133
:1036C0006004B09161040196A11DB11D80935E0458
:1036D00090935F04A0936004B0936104C0915C0474
:1036E000D0915D048E012CC08C819D81AE81BF8103
:1036F0000197A109B1098C839D83AE83BF83009795
:10370000A105B105C9F480915C0490915D04288500
:103710003985C817D90729F430935D0420935C04D8
:1037200003C0F80131872087E881F981309729F0BB
:103730008A819B81099501C08E010884D985C02D9D
:10374000209791F6DF91CF911F910F910895CF921D
:10375000DF92EF92FF921F93CF93DF93CDB7DEB747
:103760002C970FB6F894DEBF0FBECDBF6B017C0166
:103770000E94FA12FC01C114D104E104F10421F108
:10378000009721F11FB7F89481E08587FA83E983D8
:103790008EED9AE19C838B83CE0101969E838D836F
:1037A000CF82D886E986FA86CE010396908B8787EA
:1037B0000E94ED1A1FBF882311F08DEC08C080E035
:1037C0000E94D51380E003C089EC01C088EC2C96E0
:1037D0000FB6F894DEBF0FBECDBFDF91CF911F9122
:1037E000FF90EF90DF90CF90089560E070E0CB0104
:1037F00008959B01AC01E4E0220F331F441F551FC5
:10380000EA95D1F760E472E48FE090E00E94741EC4
:1038100021502093C40088E18093C10082E694E0A7
:103820000E94C714882319F08FEF9FEF089580E05E
:1038300090E008951F93CF93DF93182FEB0182E65A
:1038400094E040E050E0BA010E942415882381F4FE
:103850001A3021F48DE0BE010E941A1C8091C00034
:1038600085FFFCCF1093C60082E694E00E94BE154F
:1038700080E090E0DF91CF911F9108955058BB27D1
:10388000AA270ED075C166D130F06BD120F031F48B
:103890009F3F11F41EF45BC10EF4E095E7FB51C1AC
:1038A000E92F77D180F3BA1762077307840795076A
:1038B00018F071F49EF58FC10EF4E0950B2EBA2F1F
:1038C000A02D0B01B90190010C01CA01A001112426
:1038D000FF27591B99F0593F50F4503E68F11A16D2
:1038E000F040A22F232F342F4427585FF3CF469563
:1038F00037952795A795F0405395C9F77EF41F1685
:10390000BA0B620B730B840BBAF09150A1F0FF0F4E
:10391000BB1F661F771F881FC2F70EC0BA0F621F3A
:10392000731F841F48F4879577956795B795F7952A
:103930009E3F08F0B3CF9395880F08F09927EE0FBC
:10394000979587950895D9D008F481E008950CD013
:103950000FC107D140F0FED030F021F45F3F19F0E5
:10396000F0C0511139C1F3C014D198F39923C9F3B0
:103970005523B1F3951B550BBB27AA276217730775
:10398000840738F09F5F5F4F220F331F441FAA1F29
:10399000A9F333D00E2E3AF0E0E830D091505040E9
:1039A000E695001CCAF729D0FE2F27D0660F771F97
:1039B000881FBB1F261737074807AB07B0E809F079
:1039C000BB0B802DBF01FF2793585F4F2AF09E3F0E
:1039D000510568F0B6C000C15F3FECF3983EDCF3E0
:1039E000869577956795B795F7959F5FC9F7880F87
:1039F000911D9695879597F90895E1E0660F771FD9
:103A0000881FBB1F621773078407BA0720F0621B69
:103A1000730B840BBA0BEE1F88F7E095089504D062
:103A20006894B111D9C00895BCD088F09F5790F028
:103A3000B92F9927B751A0F0D1F0660F771F881FD3
:103A4000991F1AF0BA95C9F712C0B13081F0C3D0EE
:103A5000B1E00895C0C0672F782F8827B85F39F08C
:103A6000B93FCCF3869577956795B395D9F73EF432
:103A700090958095709561957F4F8F4F9F4F0895DA
:103A8000E89409C097FB3EF49095809570956195F8
:103A90007F4F8F4F9F4F9923A9F0F92F96E9BB27AE
:103AA0009395F695879577956795B795F111F8CF2A
:103AB000FAF4BB0F11F460FF1BC06F5F7F4F8F4F95
:103AC0009F4F16C0882311F096E911C0772321F08B
:103AD0009EE8872F762F05C0662371F096E8862F23
:103AE00070E060E02AF09A95660F771F881FDAF77A
:103AF000880F9695879597F90895990F0008550FA7
:103B0000AA0BE0E8FEEF16161706E807F907C0F063
:103B100012161306E407F50798F0621B730B840B6B
:103B2000950B39F40A2661F0232B242B252B21F445
:103B300008950A2609F4A140A6958FEF811D811DE5
:103B4000089597F99F6780E870E060E008959FEF1F
:103B500080EC089500240A94161617061806090624
:103B6000089500240A9412161306140605060895F3
:103B7000092E0394000C11F4882352F0BB0F40F47B
:103B8000BF2B11F460FF04C06F5F7F4F8F4F9F4FBB
:103B9000089557FD9058440F551F59F05F3F71F03D
:103BA0004795880F97FB991F61F09F3F79F08795A4
:103BB0000895121613061406551FF2CF4695F1DF2D
:103BC00008C0161617061806991FF1CF86957105BD
:103BD000610508940895E894BB2766277727CB01F1
:103BE00097F908950BD0C4CFB5DF28F0BADF18F0ED
:103BF000952309F0A6CFABCF1124EECFCADFA0F3F7
:103C0000959FD1F3950F50E0551F629FF001729F71
:103C1000BB27F00DB11D639FAA27F00DB11DAA1F90
:103C2000649F6627B00DA11D661F829F2227B00DDD
:103C3000A11D621F739FB00DA11D621F839FA00D68
:103C4000611D221F749F3327A00D611D231F849FB8
:103C5000600D211D822F762F6A2F11249F5750400F
:103C60008AF0E1F088234AF0EE0FFF1FBB1F661FAA
:103C7000771F881F91505040A9F79E3F510570F063
:103C800060CFAACF5F3FECF3983EDCF38695779543
:103C90006795B795F795E7959F5FC1F7FE2B880F5E
:103CA000911D9695879597F90895629FD001739F0E
:103CB000F001829FE00DF11D649FE00DF11D929FC8
:103CC000F00D839FF00D749FF00D659FF00D992707
:103CD000729FB00DE11DF91F639FB00DE11DF91F2B
:103CE000BD01CF0111240895A1E21A2EAA1BBB1B0E
:103CF000FD010DC0AA1FBB1FEE1FFF1FA217B307B8
:103D0000E407F50720F0A21BB30BE40BF50B661FCD
:103D1000771F881F991F1A9469F760957095809591
:103D200090959B01AC01BD01CF01089597FB092E31
:103D300005260ED057FD04D0D7DF0AD0001C38F47A
:103D400050954095309521953F4F4F4F5F4F0895C7
:103D5000F6F790958095709561957F4F8F4F9F4FA7
:103D60000895EE0FFF1F0590F491E02D0994CF9375
:103D7000DF93AC018230910510F442E050E0E09115
:103D80006904F0916A0420E030E0A0E0B0E024C0D3
:103D90008081918184179507D0F08417950771F47D
:103DA00082819381109729F013969C938E9312979A
:103DB0002CC090936A048093690427C021153105B3
:103DC00019F08217930718F49C01BD01EF0192814D
:103DD0008381DF01E92FF82F3097D1F621153105C6
:103DE000F9F0C901841B950B8430910580F48A8118
:103DF0009B816115710521F0FB019383828304C0CF
:103E000090936A0480936904FE01329642C0FE01D9
:103E1000E80FF91F4193519302979983888339C022
:103E20008091670490916804009741F48091470164
:103E30009091480190936804809367042091450114
:103E4000309146012115310541F42DB73EB78091DF
:103E5000490190914A01281B390BE0916704F091C8
:103E60006804E217F30798F42E1B3F0B241735075D
:103E700070F0CA0102962817390748F08E0F9F1F6D
:103E800090936804809367044193519302C0E0E0EB
:103E9000F0E0CF01DF91CF9108950F931F93CF935F
:103EA000DF939C01009709F48CC0DC0112971396F4
:103EB0001C921E9212976091690470916A046115B8
:103EC000710589F48D919C911197820F931F209118
:103ED0006704309168042817390769F5B0936804BE
:103EE000A09367046EC0FB0140E050E001C0FC01FC
:103EF000EA17FB0730F482819381AF010097B9F78D
:103F00001FC0E9012297FB83EA8308811981C90157
:103F1000800F911F8E179F0759F480819181800F28
:103F2000911F029699838883828193819B838A83E0
:103F30004115510529F4B0936A04A093690441C066
:103F4000FA01B383A283C191D191EC0FFD1FAE178B
:103F5000BF0781F4F901929182918C0F9D1F029607
:103F6000DA0111969C938E938281938113969C9390
:103F70008E931297E0E0F0E002C0FB01BC01DB0190
:103F800012968D919C9113970097B9F7CB010296E9
:103F90002D913C911197820F931F209167043091CE
:103FA00068042817390769F4309729F410926A04D5
:103FB0001092690402C013821282709368046093A5
:103FC0006704DF91CF911F910F910895A0E0B0E0B9
:103FD000ECEEFFE10C947B22EC0188819981AA81AF
:103FE000BB810097A105B10521F484E299EDABE511
:103FF000B7E0BC01CD012DE133EF41E050E00E947C
:10400000961E49015A0127EA31E440E050E00E943F
:10401000551E6B017C01C501B4012CEE34EF4FEF4E
:104020005FEF0E94551EDC01CB01C80ED91EEA1EAF
:10403000FB1EF7FE08C08FEF9FEFAFEFBFE7C80E84
:10404000D91EEA1EFB1EC882D982EA82FB82970132
:1040500086013F77B801C901CDB7DEB7ECE00C941B
:1040600097220E94E61F08958BE491E00E94E61FCC
:104070000895DC01CB0180934B0190934C01A093F8
:104080004D01B0934E010895A2E0B0E0EAE4F0E201
:104090000C947B228C01009729F4CB010E94B71E5F
:1040A0008C01B8C0DC01A60FB71FFC013297AE1718
:1040B000BF0708F4ADC02081318126173707B0F063
:1040C0002530310508F4A6C0C90104978617970763
:1040D00008F4A0C022503040261B370B2D933D938F
:1040E000CD01718360830E944D1F94C06B01C21A81
:1040F000D30A5C01A20EB31EE0916904F0916A0438
:1041000040E050E08824992449C0EA15FB05E1F518
:10411000E080F180C70102968C159D05A8F1A701EA
:104120004C195D09CA0102960F2EFEEFCF2EFFEF4C
:10413000DF2EF02DC00ED11E8530910578F08281E2
:10414000938113969C938E93129711965C934E9342
:10415000F601718360839A2F8B2F0AC0C9010296E2
:104160008E0D9F1DD60111969C938E939281838113
:104170008114910421F0F401928383834BC09093C6
:10418000690480936A0446C0808191814817590769
:1041900008F4AC01828193814F01FC01309709F052
:1041A000B4CF80916704909168048A159B05E9F467
:1041B00046175707D0F4809145019091460100972A
:1041C00041F48DB79EB72091490130914A01821B7D
:1041D000930BA817B907E0F4B0936804A0936704A1
:1041E000F80132977183608315C0CB0129833A832C
:1041F0000E94B71E7C0129813A81009749F0B801DD
:10420000A9010E944E21C8010E944D1F870102C0D2
:1042100000E010E0C8012296ECE00C9497221F9376
:10422000FC0199278827BC01E89411911032E9F329
:10423000193010F01E30C8F31B3251F01D3249F412
:10424000689406C00E941422610F711D811D911D8A
:10425000119110531A30B0F33EF4909580957095FB
:1042600061957F4F8F4F9F4F1F910895911116C1F8
:10427000803219F089508550D0F708959111089532
:1042800081548A5108F4805E855A089591110895E9
:1042900081568A5108F4805285580895FB01DC014B
:1042A00002C001900D9241505040D8F70895FB0193
:1042B000DC010D900020E9F7119701900D9200208C
:1042C000E1F70895FC018191861721F08823D9F741
:1042D000992708953197CF010895FB01DC018D9155
:1042E000019080190110D9F3990B0895FB01DC01AD
:1042F00001900D920020E1F70895FB01DC0141508F
:10430000504030F08D910190801919F40020B9F7D8
:10431000881B990B0895FB01DC014150504048F087
:1043200001900D920020C9F701C01D9241505040EC
:10433000E0F70895FC0181E090E00190061609F491
:10434000CF010020D1F701970895FB01519155232A
:10435000A9F0BF01DC014D9145174111E1F759F476
:10436000CD010190002049F04D9140154111C9F354
:10437000FB014111EFCF81E090E001970895FB012F
:104380009F01E8944230C4F04532B4F44A3029F435
:1043900097FB1EF4909581959F4F642F77270E947D
:1043A0006122805D8A330CF0895D8193CB01009797
:1043B000A1F716F45DE251931082C9010C945122C9
:1043C000FA01CF93FF93EF93223044F1253234F575
:1043D000C22FE894CA3049F497FB3EF4909580953B
:1043E000709561957F4F8F4F9F4F2C2F3327442718
:1043F0005527FF93EF930E94741EEF91FF91605D2C
:104400006A330CF0695D6193B901CA016050704074
:104410008040904051F716F4CDE2C19310828F9105
:104420009F91CF910C945122592F482F372F262F2F
:10443000660F771F881F991F660F771F881F991FA8
:10444000620F731F841F951F660F771F881F991FA8
:104450000895FA01CF93FF93EF932230CCF02532E9
:10446000BCF4C22F2C2F332744275527FF93EF93FB
:104470000E94741EEF91FF91605D6A330CF0695DDC
:104480006193B901CA01605070408040904051F77B
:1044900010828F919F91CF910C9451229927882758
:1044A0000895DC01FC01672F71917723E1F73297C2
:1044B00004C07C916D9370836291AE17BF07C8F3FF
:1044C0000895AA1BBB1B51E107C0AA1FBB1FA6175B
:1044D000B70710F0A61BB70B881F991F5A95A9F7AD
:1044E00080959095BC01CD0108952F923F924F92F7
:1044F0005F926F927F928F929F92AF92BF92CF9274
:10450000DF92EF92FF920F931F93CF93DF93CDB77C
:10451000DEB7CA1BDB0B0FB6F894DEBF0FBECDBFF4
:1045200009942A88398848885F846E847D848C84C5
:104530009B84AA84B984C884DF80EE80FD800C81CE
:104540001B81AA81B981CE0FD11D0FB6F894DEBFB1
:0C4550000FBECDBFED010895F894FFCF21
:10455C0000000000340173028A02D7000201E90056
:10456C00230100000000AB1273028A02AB12AB12E3
:10457C00AB12AB122E0000000000AB1273028A02C9
:10458C00FF010054687265616420320054687265E2
:10459C00616420310000006B042000010000000069
:00000001FF
